{
  "contractName": "Awarding",
  "abi": [
    {
      "inputs": [],
      "stateMutability": "nonpayable",
      "type": "constructor"
    },
    {
      "anonymous": false,
      "inputs": [
        {
          "indexed": true,
          "internalType": "address",
          "name": "owner",
          "type": "address"
        },
        {
          "indexed": true,
          "internalType": "address",
          "name": "approved",
          "type": "address"
        },
        {
          "indexed": true,
          "internalType": "uint256",
          "name": "tokenId",
          "type": "uint256"
        }
      ],
      "name": "Approval",
      "type": "event"
    },
    {
      "anonymous": false,
      "inputs": [
        {
          "indexed": true,
          "internalType": "address",
          "name": "owner",
          "type": "address"
        },
        {
          "indexed": true,
          "internalType": "address",
          "name": "operator",
          "type": "address"
        },
        {
          "indexed": false,
          "internalType": "bool",
          "name": "approved",
          "type": "bool"
        }
      ],
      "name": "ApprovalForAll",
      "type": "event"
    },
    {
      "anonymous": false,
      "inputs": [
        {
          "indexed": false,
          "internalType": "address",
          "name": "revieber",
          "type": "address"
        },
        {
          "indexed": false,
          "internalType": "uint256",
          "name": "level",
          "type": "uint256"
        },
        {
          "indexed": false,
          "internalType": "uint256",
          "name": "tokenId",
          "type": "uint256"
        }
      ],
      "name": "Awarded",
      "type": "event"
    },
    {
      "anonymous": false,
      "inputs": [
        {
          "indexed": false,
          "internalType": "address",
          "name": "reciever",
          "type": "address"
        },
        {
          "indexed": false,
          "internalType": "uint256",
          "name": "lenght",
          "type": "uint256"
        }
      ],
      "name": "Success",
      "type": "event"
    },
    {
      "anonymous": false,
      "inputs": [
        {
          "indexed": true,
          "internalType": "address",
          "name": "from",
          "type": "address"
        },
        {
          "indexed": true,
          "internalType": "address",
          "name": "to",
          "type": "address"
        },
        {
          "indexed": true,
          "internalType": "uint256",
          "name": "tokenId",
          "type": "uint256"
        }
      ],
      "name": "Transfer",
      "type": "event"
    },
    {
      "inputs": [
        {
          "internalType": "uint256",
          "name": "",
          "type": "uint256"
        }
      ],
      "name": "Token",
      "outputs": [
        {
          "internalType": "uint256",
          "name": "id",
          "type": "uint256"
        },
        {
          "internalType": "uint256",
          "name": "level",
          "type": "uint256"
        }
      ],
      "stateMutability": "view",
      "type": "function",
      "constant": true
    },
    {
      "inputs": [
        {
          "internalType": "address",
          "name": "to",
          "type": "address"
        },
        {
          "internalType": "uint256",
          "name": "tokenId",
          "type": "uint256"
        }
      ],
      "name": "approve",
      "outputs": [],
      "stateMutability": "nonpayable",
      "type": "function"
    },
    {
      "inputs": [
        {
          "internalType": "address",
          "name": "owner",
          "type": "address"
        }
      ],
      "name": "balanceOf",
      "outputs": [
        {
          "internalType": "uint256",
          "name": "",
          "type": "uint256"
        }
      ],
      "stateMutability": "view",
      "type": "function",
      "constant": true
    },
    {
      "inputs": [],
      "name": "baseURI",
      "outputs": [
        {
          "internalType": "string",
          "name": "",
          "type": "string"
        }
      ],
      "stateMutability": "view",
      "type": "function",
      "constant": true
    },
    {
      "inputs": [
        {
          "internalType": "uint256",
          "name": "tokenId",
          "type": "uint256"
        }
      ],
      "name": "getApproved",
      "outputs": [
        {
          "internalType": "address",
          "name": "",
          "type": "address"
        }
      ],
      "stateMutability": "view",
      "type": "function",
      "constant": true
    },
    {
      "inputs": [
        {
          "internalType": "address",
          "name": "owner",
          "type": "address"
        },
        {
          "internalType": "address",
          "name": "operator",
          "type": "address"
        }
      ],
      "name": "isApprovedForAll",
      "outputs": [
        {
          "internalType": "bool",
          "name": "",
          "type": "bool"
        }
      ],
      "stateMutability": "view",
      "type": "function",
      "constant": true
    },
    {
      "inputs": [],
      "name": "name",
      "outputs": [
        {
          "internalType": "string",
          "name": "",
          "type": "string"
        }
      ],
      "stateMutability": "view",
      "type": "function",
      "constant": true
    },
    {
      "inputs": [
        {
          "internalType": "uint256",
          "name": "tokenId",
          "type": "uint256"
        }
      ],
      "name": "ownerOf",
      "outputs": [
        {
          "internalType": "address",
          "name": "",
          "type": "address"
        }
      ],
      "stateMutability": "view",
      "type": "function",
      "constant": true
    },
    {
      "inputs": [
        {
          "internalType": "address",
          "name": "from",
          "type": "address"
        },
        {
          "internalType": "address",
          "name": "to",
          "type": "address"
        },
        {
          "internalType": "uint256",
          "name": "tokenId",
          "type": "uint256"
        }
      ],
      "name": "safeTransferFrom",
      "outputs": [],
      "stateMutability": "nonpayable",
      "type": "function"
    },
    {
      "inputs": [
        {
          "internalType": "address",
          "name": "from",
          "type": "address"
        },
        {
          "internalType": "address",
          "name": "to",
          "type": "address"
        },
        {
          "internalType": "uint256",
          "name": "tokenId",
          "type": "uint256"
        },
        {
          "internalType": "bytes",
          "name": "_data",
          "type": "bytes"
        }
      ],
      "name": "safeTransferFrom",
      "outputs": [],
      "stateMutability": "nonpayable",
      "type": "function"
    },
    {
      "inputs": [
        {
          "internalType": "address",
          "name": "operator",
          "type": "address"
        },
        {
          "internalType": "bool",
          "name": "approved",
          "type": "bool"
        }
      ],
      "name": "setApprovalForAll",
      "outputs": [],
      "stateMutability": "nonpayable",
      "type": "function"
    },
    {
      "inputs": [
        {
          "internalType": "bytes4",
          "name": "interfaceId",
          "type": "bytes4"
        }
      ],
      "name": "supportsInterface",
      "outputs": [
        {
          "internalType": "bool",
          "name": "",
          "type": "bool"
        }
      ],
      "stateMutability": "view",
      "type": "function",
      "constant": true
    },
    {
      "inputs": [],
      "name": "symbol",
      "outputs": [
        {
          "internalType": "string",
          "name": "",
          "type": "string"
        }
      ],
      "stateMutability": "view",
      "type": "function",
      "constant": true
    },
    {
      "inputs": [
        {
          "internalType": "uint256",
          "name": "index",
          "type": "uint256"
        }
      ],
      "name": "tokenByIndex",
      "outputs": [
        {
          "internalType": "uint256",
          "name": "",
          "type": "uint256"
        }
      ],
      "stateMutability": "view",
      "type": "function",
      "constant": true
    },
    {
      "inputs": [
        {
          "internalType": "address",
          "name": "owner",
          "type": "address"
        },
        {
          "internalType": "uint256",
          "name": "index",
          "type": "uint256"
        }
      ],
      "name": "tokenOfOwnerByIndex",
      "outputs": [
        {
          "internalType": "uint256",
          "name": "",
          "type": "uint256"
        }
      ],
      "stateMutability": "view",
      "type": "function",
      "constant": true
    },
    {
      "inputs": [
        {
          "internalType": "uint256",
          "name": "tokenId",
          "type": "uint256"
        }
      ],
      "name": "tokenURI",
      "outputs": [
        {
          "internalType": "string",
          "name": "",
          "type": "string"
        }
      ],
      "stateMutability": "view",
      "type": "function",
      "constant": true
    },
    {
      "inputs": [],
      "name": "totalSupply",
      "outputs": [
        {
          "internalType": "uint256",
          "name": "",
          "type": "uint256"
        }
      ],
      "stateMutability": "view",
      "type": "function",
      "constant": true
    },
    {
      "inputs": [
        {
          "internalType": "address",
          "name": "from",
          "type": "address"
        },
        {
          "internalType": "address",
          "name": "to",
          "type": "address"
        },
        {
          "internalType": "uint256",
          "name": "tokenId",
          "type": "uint256"
        }
      ],
      "name": "transferFrom",
      "outputs": [],
      "stateMutability": "nonpayable",
      "type": "function"
    },
    {
      "inputs": [
        {
          "internalType": "address",
          "name": "reciever",
          "type": "address"
        },
        {
          "internalType": "string",
          "name": "text",
          "type": "string"
        },
        {
          "internalType": "int256",
          "name": "tokenId",
          "type": "int256"
        }
      ],
      "name": "AwardUser",
      "outputs": [
        {
          "internalType": "string",
          "name": "result",
          "type": "string"
        }
      ],
      "stateMutability": "nonpayable",
      "type": "function"
    },
    {
      "inputs": [],
      "name": "getOnwer",
      "outputs": [
        {
          "internalType": "address",
          "name": "token",
          "type": "address"
        }
      ],
      "stateMutability": "view",
      "type": "function",
      "constant": true
    },
    {
      "inputs": [
        {
          "internalType": "string",
          "name": "text",
          "type": "string"
        }
      ],
      "name": "checkText",
      "outputs": [
        {
          "internalType": "bool",
          "name": "truthy",
          "type": "bool"
        }
      ],
      "stateMutability": "view",
      "type": "function",
      "constant": true
    }
  ],
  "bytecode": "0x60806040523480156200001157600080fd5b506040518060400160405280600381526020017f436f6e00000000000000000000000000000000000000000000000000000000008152506040518060400160405280600381526020017f434f4e0000000000000000000000000000000000000000000000000000000000815250620000966301ffc9a760e01b6200015960201b60201c565b8160069080519060200190620000ae92919062000262565b508060079080519060200190620000c792919062000262565b50620000e06380ac58cd60e01b6200015960201b60201c565b620000f8635b5e139f60e01b6200015960201b60201c565b6200011063780e9d6360e01b6200015960201b60201c565b505033600b60006101000a81548173ffffffffffffffffffffffffffffffffffffffff021916908373ffffffffffffffffffffffffffffffffffffffff16021790555062000311565b63ffffffff60e01b817bffffffffffffffffffffffffffffffffffffffffffffffffffffffff19161415620001f6576040517f08c379a000000000000000000000000000000000000000000000000000000000815260040180806020018281038252601c8152602001807f4552433136353a20696e76616c696420696e746572666163652069640000000081525060200191505060405180910390fd5b6001600080837bffffffffffffffffffffffffffffffffffffffffffffffffffffffff19167bffffffffffffffffffffffffffffffffffffffffffffffffffffffff1916815260200190815260200160002060006101000a81548160ff02191690831515021790555050565b828054600181600116156101000203166002900490600052602060002090601f016020900481019282601f10620002a557805160ff1916838001178555620002d6565b82800160010185558215620002d6579182015b82811115620002d5578251825591602001919060010190620002b8565b5b509050620002e59190620002e9565b5090565b6200030e91905b808211156200030a576000816000905550600101620002f0565b5090565b90565b61311380620003216000396000f3fe608060405234801561001057600080fd5b50600436106101375760003560e01c80636241bfd1116100b8578063a22cb4651161007c578063a22cb46514610766578063b634b8e5146107b6578063b88d4fde14610800578063c87b56dd14610905578063e54563fb146109ac578063e985e9c514610b0a57610137565b80636241bfd1146105515780636352211e1461059a5780636c0360eb1461060857806370a082311461068b57806395d89b41146106e357610137565b806318bda028116100ff57806318bda028146102fe57806323b872dd146103d15780632f745c591461043f57806342842e0e146104a15780634f6ccce71461050f57610137565b806301ffc9a71461013c57806306fdde03146101a1578063081812fc14610224578063095ea7b31461029257806318160ddd146102e0575b600080fd5b6101876004803603602081101561015257600080fd5b8101908080357bffffffffffffffffffffffffffffffffffffffffffffffffffffffff19169060200190929190505050610b86565b604051808215151515815260200191505060405180910390f35b6101a9610bed565b6040518080602001828103825283818151815260200191508051906020019080838360005b838110156101e95780820151818401526020810190506101ce565b50505050905090810190601f1680156102165780820380516001836020036101000a031916815260200191505b509250505060405180910390f35b6102506004803603602081101561023a57600080fd5b8101908080359060200190929190505050610c8f565b604051808273ffffffffffffffffffffffffffffffffffffffff1673ffffffffffffffffffffffffffffffffffffffff16815260200191505060405180910390f35b6102de600480360360408110156102a857600080fd5b81019080803573ffffffffffffffffffffffffffffffffffffffff16906020019092919080359060200190929190505050610d2a565b005b6102e8610e6e565b6040518082815260200191505060405180910390f35b6103b76004803603602081101561031457600080fd5b810190808035906020019064010000000081111561033157600080fd5b82018360208201111561034357600080fd5b8035906020019184600183028401116401000000008311171561036557600080fd5b91908080601f016020809104026020016040519081016040528093929190818152602001838380828437600081840152601f19601f820116905080830192505050505050509192919290505050610e7f565b604051808215151515815260200191505060405180910390f35b61043d600480360360608110156103e757600080fd5b81019080803573ffffffffffffffffffffffffffffffffffffffff169060200190929190803573ffffffffffffffffffffffffffffffffffffffff16906020019092919080359060200190929190505050610eff565b005b61048b6004803603604081101561045557600080fd5b81019080803573ffffffffffffffffffffffffffffffffffffffff16906020019092919080359060200190929190505050610f75565b6040518082815260200191505060405180910390f35b61050d600480360360608110156104b757600080fd5b81019080803573ffffffffffffffffffffffffffffffffffffffff169060200190929190803573ffffffffffffffffffffffffffffffffffffffff16906020019092919080359060200190929190505050610fd0565b005b61053b6004803603602081101561052557600080fd5b8101908080359060200190929190505050610ff0565b6040518082815260200191505060405180910390f35b61057d6004803603602081101561056757600080fd5b8101908080359060200190929190505050611013565b604051808381526020018281526020019250505060405180910390f35b6105c6600480360360208110156105b057600080fd5b8101908080359060200190929190505050611044565b604051808273ffffffffffffffffffffffffffffffffffffffff1673ffffffffffffffffffffffffffffffffffffffff16815260200191505060405180910390f35b61061061107b565b6040518080602001828103825283818151815260200191508051906020019080838360005b83811015610650578082015181840152602081019050610635565b50505050905090810190601f16801561067d5780820380516001836020036101000a031916815260200191505b509250505060405180910390f35b6106cd600480360360208110156106a157600080fd5b81019080803573ffffffffffffffffffffffffffffffffffffffff16906020019092919050505061111d565b6040518082815260200191505060405180910390f35b6106eb6111f2565b6040518080602001828103825283818151815260200191508051906020019080838360005b8381101561072b578082015181840152602081019050610710565b50505050905090810190601f1680156107585780820380516001836020036101000a031916815260200191505b509250505060405180910390f35b6107b46004803603604081101561077c57600080fd5b81019080803573ffffffffffffffffffffffffffffffffffffffff169060200190929190803515159060200190929190505050611294565b005b6107be61144c565b604051808273ffffffffffffffffffffffffffffffffffffffff1673ffffffffffffffffffffffffffffffffffffffff16815260200191505060405180910390f35b6109036004803603608081101561081657600080fd5b81019080803573ffffffffffffffffffffffffffffffffffffffff169060200190929190803573ffffffffffffffffffffffffffffffffffffffff169060200190929190803590602001909291908035906020019064010000000081111561087d57600080fd5b82018360208201111561088f57600080fd5b803590602001918460018302840111640100000000831117156108b157600080fd5b91908080601f016020809104026020016040519081016040528093929190818152602001838380828437600081840152601f19601f820116905080830192505050505050509192919290505050611476565b005b6109316004803603602081101561091b57600080fd5b81019080803590602001909291905050506114ee565b6040518080602001828103825283818151815260200191508051906020019080838360005b83811015610971578082015181840152602081019050610956565b50505050905090810190601f16801561099e5780820380516001836020036101000a031916815260200191505b509250505060405180910390f35b610a8f600480360360608110156109c257600080fd5b81019080803573ffffffffffffffffffffffffffffffffffffffff169060200190929190803590602001906401000000008111156109ff57600080fd5b820183602082011115610a1157600080fd5b80359060200191846001830284011164010000000083111715610a3357600080fd5b91908080601f016020809104026020016040519081016040528093929190818152602001838380828437600081840152601f19601f820116905080830192505050505050509192919290803590602001909291905050506117d7565b6040518080602001828103825283818151815260200191508051906020019080838360005b83811015610acf578082015181840152602081019050610ab4565b50505050905090810190601f168015610afc5780820380516001836020036101000a031916815260200191505b509250505060405180910390f35b610b6c60048036036040811015610b2057600080fd5b81019080803573ffffffffffffffffffffffffffffffffffffffff169060200190929190803573ffffffffffffffffffffffffffffffffffffffff169060200190929190505050611a3b565b604051808215151515815260200191505060405180910390f35b6000806000837bffffffffffffffffffffffffffffffffffffffffffffffffffffffff19167bffffffffffffffffffffffffffffffffffffffffffffffffffffffff1916815260200190815260200160002060009054906101000a900460ff169050919050565b606060068054600181600116156101000203166002900480601f016020809104026020016040519081016040528092919081815260200182805460018160011615610100020316600290048015610c855780601f10610c5a57610100808354040283529160200191610c85565b820191906000526020600020905b815481529060010190602001808311610c6857829003601f168201915b5050505050905090565b6000610c9a82611acf565b610cef576040517f08c379a000000000000000000000000000000000000000000000000000000000815260040180806020018281038252602c815260200180613008602c913960400191505060405180910390fd5b6004600083815260200190815260200160002060009054906101000a900473ffffffffffffffffffffffffffffffffffffffff169050919050565b6000610d3582611044565b90508073ffffffffffffffffffffffffffffffffffffffff168373ffffffffffffffffffffffffffffffffffffffff161415610dbc576040517f08c379a000000000000000000000000000000000000000000000000000000000815260040180806020018281038252602181526020018061308c6021913960400191505060405180910390fd5b8073ffffffffffffffffffffffffffffffffffffffff16610ddb611aec565b73ffffffffffffffffffffffffffffffffffffffff161480610e0a5750610e0981610e04611aec565b611a3b565b5b610e5f576040517f08c379a0000000000000000000000000000000000000000000000000000000008152600401808060200182810382526038815260200180612f5b6038913960400191505060405180910390fd5b610e698383611af4565b505050565b6000610e7a6002611bad565b905090565b6000600c826040518082805190602001908083835b60208310610eb75780518252602082019150602081019050602083039250610e94565b6001836020036101000a038019825116818451168082178552505050505050905001915050908152602001604051809103902060009054906101000a900460ff169050919050565b610f10610f0a611aec565b82611bc2565b610f65576040517f08c379a00000000000000000000000000000000000000000000000000000000081526004018080602001828103825260318152602001806130ad6031913960400191505060405180910390fd5b610f70838383611cb6565b505050565b6000610fc882600160008673ffffffffffffffffffffffffffffffffffffffff1673ffffffffffffffffffffffffffffffffffffffff168152602001908152602001600020611ef990919063ffffffff16565b905092915050565b610feb83838360405180602001604052806000815250611476565b505050565b600080611007836002611f1390919063ffffffff16565b50905080915050919050565b600d818154811061102057fe5b90600052602060002090600202016000915090508060000154908060010154905082565b600061107482604051806060016040528060298152602001612fbd602991396002611f429092919063ffffffff16565b9050919050565b606060098054600181600116156101000203166002900480601f0160208091040260200160405190810160405280929190818152602001828054600181600116156101000203166002900480156111135780601f106110e857610100808354040283529160200191611113565b820191906000526020600020905b8154815290600101906020018083116110f657829003601f168201915b5050505050905090565b60008073ffffffffffffffffffffffffffffffffffffffff168273ffffffffffffffffffffffffffffffffffffffff1614156111a4576040517f08c379a000000000000000000000000000000000000000000000000000000000815260040180806020018281038252602a815260200180612f93602a913960400191505060405180910390fd5b6111eb600160008473ffffffffffffffffffffffffffffffffffffffff1673ffffffffffffffffffffffffffffffffffffffff168152602001908152602001600020611f61565b9050919050565b606060078054600181600116156101000203166002900480601f01602080910402602001604051908101604052809291908181526020018280546001816001161561010002031660029004801561128a5780601f1061125f5761010080835404028352916020019161128a565b820191906000526020600020905b81548152906001019060200180831161126d57829003601f168201915b5050505050905090565b61129c611aec565b73ffffffffffffffffffffffffffffffffffffffff168273ffffffffffffffffffffffffffffffffffffffff16141561133d576040517f08c379a00000000000000000000000000000000000000000000000000000000081526004018080602001828103825260198152602001807f4552433732313a20617070726f766520746f2063616c6c65720000000000000081525060200191505060405180910390fd5b806005600061134a611aec565b73ffffffffffffffffffffffffffffffffffffffff1673ffffffffffffffffffffffffffffffffffffffff16815260200190815260200160002060008473ffffffffffffffffffffffffffffffffffffffff1673ffffffffffffffffffffffffffffffffffffffff16815260200190815260200160002060006101000a81548160ff0219169083151502179055508173ffffffffffffffffffffffffffffffffffffffff166113f7611aec565b73ffffffffffffffffffffffffffffffffffffffff167f17307eab39ab6107e8899845ad3d59bd9653f200f220920489ca2b5937696c3183604051808215151515815260200191505060405180910390a35050565b6000600b60009054906101000a900473ffffffffffffffffffffffffffffffffffffffff16905090565b611487611481611aec565b83611bc2565b6114dc576040517f08c379a00000000000000000000000000000000000000000000000000000000081526004018080602001828103825260318152602001806130ad6031913960400191505060405180910390fd5b6114e884848484611f76565b50505050565b60606114f982611acf565b61154e576040517f08c379a000000000000000000000000000000000000000000000000000000000815260040180806020018281038252602f81526020018061305d602f913960400191505060405180910390fd5b6060600860008481526020019081526020016000208054600181600116156101000203166002900480601f0160208091040260200160405190810160405280929190818152602001828054600181600116156101000203166002900480156115f75780601f106115cc576101008083540402835291602001916115f7565b820191906000526020600020905b8154815290600101906020018083116115da57829003601f168201915b5050505050905060006009805460018160011615610100020316600290049050141561162657809150506117d2565b6000815111156116ff5760098160405160200180838054600181600116156101000203166002900480156116915780601f1061166f576101008083540402835291820191611691565b820191906000526020600020905b81548152906001019060200180831161167d575b505082805190602001908083835b602083106116c2578051825260208201915060208101905060208303925061169f565b6001836020036101000a038019825116818451168082178552505050505050905001925050506040516020818303038152906040529150506117d2565b600961170a84611fe8565b60405160200180838054600181600116156101000203166002900480156117685780601f10611746576101008083540402835291820191611768565b820191906000526020600020905b815481529060010190602001808311611754575b505082805190602001908083835b602083106117995780518252602082019150602081019050602083039250611776565b6001836020036101000a038019825116818451168082178552505050505050905001925050506040516020818303038152906040529150505b919050565b6060600b60009054906101000a900473ffffffffffffffffffffffffffffffffffffffff1673ffffffffffffffffffffffffffffffffffffffff163373ffffffffffffffffffffffffffffffffffffffff161461189c576040517f08c379a00000000000000000000000000000000000000000000000000000000081526004018080602001828103825260168152602001807f7065726d697373696f6e206e6f74206772616e7465640000000000000000000081525060200191505060405180910390fd5b600d805490508212611916576040517f08c379a000000000000000000000000000000000000000000000000000000000815260040180806020018281038252600f8152602001807f496e76616c696420546f6b656e4964000000000000000000000000000000000081525060200191505060405180910390fd5b600c836040518082805190602001908083835b6020831061194c5780518252602082019150602081019050602083039250611929565b6001836020036101000a038019825116818451168082178552505050505050905001915050908152602001604051809103902060009054906101000a900460ff1615611a00576040517f08c379a00000000000000000000000000000000000000000000000000000000081526004018080602001828103825260138152602001807f5465787420616c7265616479206578697374730000000000000000000000000081525060200191505060405180910390fd5b6000821215611a20576060611a158585612118565b905080915050611a34565b6060611a2d8585856122b1565b9050809150505b9392505050565b6000600560008473ffffffffffffffffffffffffffffffffffffffff1673ffffffffffffffffffffffffffffffffffffffff16815260200190815260200160002060008373ffffffffffffffffffffffffffffffffffffffff1673ffffffffffffffffffffffffffffffffffffffff16815260200190815260200160002060009054906101000a900460ff16905092915050565b6000611ae582600261241e90919063ffffffff16565b9050919050565b600033905090565b816004600083815260200190815260200160002060006101000a81548173ffffffffffffffffffffffffffffffffffffffff021916908373ffffffffffffffffffffffffffffffffffffffff160217905550808273ffffffffffffffffffffffffffffffffffffffff16611b6783611044565b73ffffffffffffffffffffffffffffffffffffffff167f8c5be1e5ebec7d5bd14f71427d1e84f3dd0314c0f7b2291e5b200ac8c7c3b92560405160405180910390a45050565b6000611bbb82600001612438565b9050919050565b6000611bcd82611acf565b611c22576040517f08c379a000000000000000000000000000000000000000000000000000000000815260040180806020018281038252602c815260200180612f2f602c913960400191505060405180910390fd5b6000611c2d83611044565b90508073ffffffffffffffffffffffffffffffffffffffff168473ffffffffffffffffffffffffffffffffffffffff161480611c9c57508373ffffffffffffffffffffffffffffffffffffffff16611c8484610c8f565b73ffffffffffffffffffffffffffffffffffffffff16145b80611cad5750611cac8185611a3b565b5b91505092915050565b8273ffffffffffffffffffffffffffffffffffffffff16611cd682611044565b73ffffffffffffffffffffffffffffffffffffffff1614611d42576040517f08c379a00000000000000000000000000000000000000000000000000000000081526004018080602001828103825260298152602001806130346029913960400191505060405180910390fd5b600073ffffffffffffffffffffffffffffffffffffffff168273ffffffffffffffffffffffffffffffffffffffff161415611dc8576040517f08c379a0000000000000000000000000000000000000000000000000000000008152600401808060200182810382526024815260200180612f0b6024913960400191505060405180910390fd5b611dd3838383612449565b611dde600082611af4565b611e2f81600160008673ffffffffffffffffffffffffffffffffffffffff1673ffffffffffffffffffffffffffffffffffffffff16815260200190815260200160002061244e90919063ffffffff16565b50611e8181600160008573ffffffffffffffffffffffffffffffffffffffff1673ffffffffffffffffffffffffffffffffffffffff16815260200190815260200160002061246890919063ffffffff16565b50611e98818360026124829092919063ffffffff16565b50808273ffffffffffffffffffffffffffffffffffffffff168473ffffffffffffffffffffffffffffffffffffffff167fddf252ad1be2c89b69c2b068fc378daa952ba7f163c4a11628f55a4df523b3ef60405160405180910390a4505050565b6000611f0883600001836124b7565b60001c905092915050565b600080600080611f26866000018661253a565b915091508160001c8160001c8090509350935050509250929050565b6000611f55846000018460001b846125d3565b60001c90509392505050565b6000611f6f826000016126c9565b9050919050565b611f81848484611cb6565b611f8d848484846126da565b611fe2576040517f08c379a0000000000000000000000000000000000000000000000000000000008152600401808060200182810382526032815260200180612ed96032913960400191505060405180910390fd5b50505050565b60606000821415612030576040518060400160405280600181526020017f30000000000000000000000000000000000000000000000000000000000000008152509050612113565b600082905060005b6000821461205a578080600101915050600a828161205257fe5b049150612038565b6060816040519080825280601f01601f19166020018201604052801561208f5781602001600182028038833980820191505090505b50905060006001830390508593505b6000841461210b57600a84816120b057fe5b0660300160f81b828280600190039350815181106120ca57fe5b60200101907effffffffffffffffffffffffffffffffffffffffffffffffffffffffffffff1916908160001a905350600a848161210357fe5b04935061209e565b819450505050505b919050565b60606000600d805490509050600d6040518060400160405280838152602001600081525090806001815401808255809150506001900390600052602060002090600202016000909190919091506000820151816000015560208201518160010155505061218584826129fd565b6001600c846040518082805190602001908083835b602083106121bd578051825260208201915060208101905060208303925061219a565b6001836020036101000a038019825116818451168082178552505050505050905001915050908152602001604051809103902060006101000a81548160ff0219169083151502179055507fc56317b24992a55703014380badea37068147222bc9a17ee2cbf53795835f2ea8482604051808373ffffffffffffffffffffffffffffffffffffffff1673ffffffffffffffffffffffffffffffffffffffff1681526020018281526020019250505060405180910390a16040518060400160405280600781526020017f737563636573730000000000000000000000000000000000000000000000000081525091505092915050565b60606000600d83815481106122c257fe5b906000526020600020906002020190506001600c856040518082805190602001908083835b6020831061230a57805182526020820191506020810190506020830392506122e7565b6001836020036101000a038019825116818451168082178552505050505050905001915050908152602001604051809103902060006101000a81548160ff021916908315150217905550600181600101600082825401925050819055507f7adb26a7cfdd051fb0b5aedd769aead9026d0a9ebcc7f9b4f0b34b19778243a385826001015485604051808473ffffffffffffffffffffffffffffffffffffffff1673ffffffffffffffffffffffffffffffffffffffff168152602001838152602001828152602001935050505060405180910390a16040518060400160405280600781526020017f73756363657373000000000000000000000000000000000000000000000000008152509150509392505050565b6000612430836000018360001b612bf1565b905092915050565b600081600001805490509050919050565b505050565b6000612460836000018360001b612c14565b905092915050565b600061247a836000018360001b612cfc565b905092915050565b60006124ae846000018460001b8473ffffffffffffffffffffffffffffffffffffffff1660001b612d6c565b90509392505050565b600081836000018054905011612518576040517f08c379a0000000000000000000000000000000000000000000000000000000008152600401808060200182810382526022815260200180612eb76022913960400191505060405180910390fd5b82600001828154811061252757fe5b9060005260206000200154905092915050565b6000808284600001805490501161259c576040517f08c379a0000000000000000000000000000000000000000000000000000000008152600401808060200182810382526022815260200180612fe66022913960400191505060405180910390fd5b60008460000184815481106125ad57fe5b906000526020600020906002020190508060000154816001015492509250509250929050565b6000808460010160008581526020019081526020016000205490506000811415839061269a576040517f08c379a00000000000000000000000000000000000000000000000000000000081526004018080602001828103825283818151815260200191508051906020019080838360005b8381101561265f578082015181840152602081019050612644565b50505050905090810190601f16801561268c5780820380516001836020036101000a031916815260200191505b509250505060405180910390fd5b508460000160018203815481106126ad57fe5b9060005260206000209060020201600101549150509392505050565b600081600001805490509050919050565b60006126fb8473ffffffffffffffffffffffffffffffffffffffff16612e48565b61270857600190506129f5565b600060608573ffffffffffffffffffffffffffffffffffffffff1663150b7a0260e01b612733611aec565b898888604051602401808573ffffffffffffffffffffffffffffffffffffffff1673ffffffffffffffffffffffffffffffffffffffff1681526020018473ffffffffffffffffffffffffffffffffffffffff1673ffffffffffffffffffffffffffffffffffffffff16815260200183815260200180602001828103825283818151815260200191508051906020019080838360005b838110156127e35780820151818401526020810190506127c8565b50505050905090810190601f1680156128105780820380516001836020036101000a031916815260200191505b5095505050505050604051602081830303815290604052907bffffffffffffffffffffffffffffffffffffffffffffffffffffffff19166020820180517bffffffffffffffffffffffffffffffffffffffffffffffffffffffff83818316178352505050506040518082805190602001908083835b602083106128a85780518252602082019150602081019050602083039250612885565b6001836020036101000a0380198251168184511680821785525050505050509050019150506000604051808303816000865af19150503d806000811461290a576040519150601f19603f3d011682016040523d82523d6000602084013e61290f565b606091505b50915091508161297d5760008151111561292c5780518082602001fd5b6040517f08c379a0000000000000000000000000000000000000000000000000000000008152600401808060200182810382526032815260200180612ed96032913960400191505060405180910390fd5b600081806020019051602081101561299457600080fd5b8101908080519060200190929190505050905063150b7a0260e01b7bffffffffffffffffffffffffffffffffffffffffffffffffffffffff1916817bffffffffffffffffffffffffffffffffffffffffffffffffffffffff19161493505050505b949350505050565b600073ffffffffffffffffffffffffffffffffffffffff168273ffffffffffffffffffffffffffffffffffffffff161415612aa0576040517f08c379a00000000000000000000000000000000000000000000000000000000081526004018080602001828103825260208152602001807f4552433732313a206d696e7420746f20746865207a65726f206164647265737381525060200191505060405180910390fd5b612aa981611acf565b15612b1c576040517f08c379a000000000000000000000000000000000000000000000000000000000815260040180806020018281038252601c8152602001807f4552433732313a20746f6b656e20616c7265616479206d696e7465640000000081525060200191505060405180910390fd5b612b2860008383612449565b612b7981600160008573ffffffffffffffffffffffffffffffffffffffff1673ffffffffffffffffffffffffffffffffffffffff16815260200190815260200160002061246890919063ffffffff16565b50612b90818360026124829092919063ffffffff16565b50808273ffffffffffffffffffffffffffffffffffffffff16600073ffffffffffffffffffffffffffffffffffffffff167fddf252ad1be2c89b69c2b068fc378daa952ba7f163c4a11628f55a4df523b3ef60405160405180910390a45050565b600080836001016000848152602001908152602001600020541415905092915050565b60008083600101600084815260200190815260200160002054905060008114612cf05760006001820390506000600186600001805490500390506000866000018281548110612c5f57fe5b9060005260206000200154905080876000018481548110612c7c57fe5b9060005260206000200181905550600183018760010160008381526020019081526020016000208190555086600001805480612cb457fe5b60019003818190600052602060002001600090559055866001016000878152602001908152602001600020600090556001945050505050612cf6565b60009150505b92915050565b6000612d088383612e93565b612d61578260000182908060018154018082558091505060019003906000526020600020016000909190919091505582600001805490508360010160008481526020019081526020016000208190555060019050612d66565b600090505b92915050565b6000808460010160008581526020019081526020016000205490506000811415612e1357846000016040518060400160405280868152602001858152509080600181540180825580915050600190039060005260206000209060020201600090919091909150600082015181600001556020820151816001015550508460000180549050856001016000868152602001908152602001600020819055506001915050612e41565b82856000016001830381548110612e2657fe5b90600052602060002090600202016001018190555060009150505b9392505050565b60008060007fc5d2460186f7233c927e7db2dcc703c0e500b653ca82273b7bfad8045d85a47060001b9050833f9150808214158015612e8a57506000801b8214155b92505050919050565b60008083600101600084815260200190815260200160002054141590509291505056fe456e756d657261626c655365743a20696e646578206f7574206f6620626f756e64734552433732313a207472616e7366657220746f206e6f6e20455243373231526563656976657220696d706c656d656e7465724552433732313a207472616e7366657220746f20746865207a65726f20616464726573734552433732313a206f70657261746f7220717565727920666f72206e6f6e6578697374656e7420746f6b656e4552433732313a20617070726f76652063616c6c6572206973206e6f74206f776e6572206e6f7220617070726f76656420666f7220616c6c4552433732313a2062616c616e636520717565727920666f7220746865207a65726f20616464726573734552433732313a206f776e657220717565727920666f72206e6f6e6578697374656e7420746f6b656e456e756d657261626c654d61703a20696e646578206f7574206f6620626f756e64734552433732313a20617070726f76656420717565727920666f72206e6f6e6578697374656e7420746f6b656e4552433732313a207472616e73666572206f6620746f6b656e2074686174206973206e6f74206f776e4552433732314d657461646174613a2055524920717565727920666f72206e6f6e6578697374656e7420746f6b656e4552433732313a20617070726f76616c20746f2063757272656e74206f776e65724552433732313a207472616e736665722063616c6c6572206973206e6f74206f776e6572206e6f7220617070726f766564a2646970667358221220eb605e21d03e6ae84460f9cbd5433531dc02128286ffbedf9bd8a8a964f7fe6764736f6c63430006020033",
  "source": "// pragma solidity >=0.5.10 <0.7.0;\npragma solidity 0.6.2;\n\n//import \"https://github.com/OpenZeppelin/openzeppelin-contracts/blob/master/contracts/token/ERC721/ERC721.sol\";\n\nimport \"@openzeppelin/contracts/token/ERC721/ERC721.sol\";\n\ncontract Awarding is ERC721 {\n    uint256 value;\n    address tokenOwner;\n\n    constructor() public ERC721(\"Con\", \"CON\") {\n        // value = msg.value;\n        tokenOwner = msg.sender;\n    }\n\n    mapping(string => bool) Text;\n    Con[] public Token;\n\n    struct Con {\n        uint256 id;\n        uint256 level;\n    }\n\n    event Success(address reciever, uint256 lenght);\n    event Awarded(address revieber, uint256 level, uint256 tokenId);\n\n    modifier ownership {\n        require(msg.sender == tokenOwner, \"permission not granted\");\n        _;\n    }\n\n    function Mint(address reciever, string memory news)\n        internal\n        returns (string memory str)\n    {\n        // require(!Text[news],\"Information already recorded.\");\n\n        uint256 id = Token.length;\n        Token.push(Con(id, 0));\n        _mint(reciever, id);\n        Text[news] = true;\n        emit Success(reciever, id);\n        return \"success\";\n    }\n\n    function AwardUser(\n        address reciever,\n        string memory text,\n        int256 tokenId\n    ) public ownership returns (string memory result) {\n        require(tokenId < int256(Token.length), \"Invalid TokenId\");\n        require(!Text[text], \"Text already exists\");\n\n        if (tokenId < 0) {\n            string memory returnValue = Mint(reciever, text);\n            return returnValue;\n        } else {\n            string memory returnValue = Award(reciever, text, uint256(tokenId));\n            return returnValue;\n        }\n    }\n\n    function Award(\n        address reciever,\n        string memory text,\n        uint256 tokenId\n    ) private returns (string memory str) {\n        Con storage token = Token[tokenId];\n        Text[text] = true;\n        token.level += 1;\n        emit Awarded(reciever, token.level, tokenId);\n        return \"success\";\n    }\n\n    function getOnwer() public view returns (address token) {\n        return tokenOwner;\n    }\n\n    function checkText(string memory text) public view returns (bool truthy) {\n        return Text[text];\n    }\n}\n",
  "sourcePath": "/home/rachit/Projects/gui-webview/contracts/Awarding.sol",
  "compiler": {
    "name": "solc",
    "version": "0.6.2+commit.bacdbe57.Emscripten.clang"
  },
  "schemaVersion": "3.2.0",
  "updatedAt": "2020-06-23T19:33:24.883Z",
  "networkType": "ethereum",
  "devdoc": {
    "methods": {
      "approve(address,uint256)": {
        "details": "Approves another address to transfer the given token ID The zero address indicates there is no approved address. There can only be one approved address per token at a given time. Can only be called by the token owner or an approved operator.",
        "params": {
          "to": "address to be approved for the given token ID",
          "tokenId": "uint256 ID of the token to be approved"
        }
      },
      "balanceOf(address)": {
        "details": "Gets the balance of the specified address.",
        "params": {
          "owner": "address to query the balance of"
        },
        "returns": {
          "_0": "uint256 representing the amount owned by the passed address"
        }
      },
      "baseURI()": {
        "details": "Returns the base URI set via {_setBaseURI}. This will be automatically added as a prefix in {tokenURI} to each token's URI, or to the token ID if no specific URI is set for that token ID."
      },
      "getApproved(uint256)": {
        "details": "Gets the approved address for a token ID, or zero if no address set Reverts if the token ID does not exist.",
        "params": {
          "tokenId": "uint256 ID of the token to query the approval of"
        },
        "returns": {
          "_0": "address currently approved for the given token ID"
        }
      },
      "isApprovedForAll(address,address)": {
        "details": "Tells whether an operator is approved by a given owner.",
        "params": {
          "operator": "operator address which you want to query the approval of",
          "owner": "owner address which you want to query the approval of"
        },
        "returns": {
          "_0": "bool whether the given operator is approved by the given owner"
        }
      },
      "name()": {
        "details": "Gets the token name.",
        "returns": {
          "_0": "string representing the token name"
        }
      },
      "ownerOf(uint256)": {
        "details": "Gets the owner of the specified token ID.",
        "params": {
          "tokenId": "uint256 ID of the token to query the owner of"
        },
        "returns": {
          "_0": "address currently marked as the owner of the given token ID"
        }
      },
      "safeTransferFrom(address,address,uint256)": {
        "details": "Safely transfers the ownership of a given token ID to another address If the target address is a contract, it must implement {IERC721Receiver-onERC721Received}, which is called upon a safe transfer, and return the magic value `bytes4(keccak256(\"onERC721Received(address,address,uint256,bytes)\"))`; otherwise, the transfer is reverted. Requires the msg.sender to be the owner, approved, or operator",
        "params": {
          "from": "current owner of the token",
          "to": "address to receive the ownership of the given token ID",
          "tokenId": "uint256 ID of the token to be transferred"
        }
      },
      "safeTransferFrom(address,address,uint256,bytes)": {
        "details": "Safely transfers the ownership of a given token ID to another address If the target address is a contract, it must implement {IERC721Receiver-onERC721Received}, which is called upon a safe transfer, and return the magic value `bytes4(keccak256(\"onERC721Received(address,address,uint256,bytes)\"))`; otherwise, the transfer is reverted. Requires the _msgSender() to be the owner, approved, or operator",
        "params": {
          "_data": "bytes data to send along with a safe transfer check",
          "from": "current owner of the token",
          "to": "address to receive the ownership of the given token ID",
          "tokenId": "uint256 ID of the token to be transferred"
        }
      },
      "setApprovalForAll(address,bool)": {
        "details": "Sets or unsets the approval of a given operator An operator is allowed to transfer all tokens of the sender on their behalf.",
        "params": {
          "approved": "representing the status of the approval to be set",
          "operator": "operator address to set the approval"
        }
      },
      "supportsInterface(bytes4)": {
        "details": "See {IERC165-supportsInterface}.     * Time complexity O(1), guaranteed to always use less than 30 000 gas."
      },
      "symbol()": {
        "details": "Gets the token symbol.",
        "returns": {
          "_0": "string representing the token symbol"
        }
      },
      "tokenByIndex(uint256)": {
        "details": "Gets the token ID at a given index of all the tokens in this contract Reverts if the index is greater or equal to the total number of tokens.",
        "params": {
          "index": "uint256 representing the index to be accessed of the tokens list"
        },
        "returns": {
          "_0": "uint256 token ID at the given index of the tokens list"
        }
      },
      "tokenOfOwnerByIndex(address,uint256)": {
        "details": "Gets the token ID at a given index of the tokens list of the requested owner.",
        "params": {
          "index": "uint256 representing the index to be accessed of the requested tokens list",
          "owner": "address owning the tokens list to be accessed"
        },
        "returns": {
          "_0": "uint256 token ID at the given index of the tokens list owned by the requested address"
        }
      },
      "tokenURI(uint256)": {
        "details": "Returns the URI for a given token ID. May return an empty string.     * If a base URI is set (via {_setBaseURI}), it is added as a prefix to the token's own URI (via {_setTokenURI}).     * If there is a base URI but no token URI, the token's ID will be used as its URI when appending it to the base URI. This pattern for autogenerated token URIs can lead to large gas savings.     * .Examples |=== |`_setBaseURI()` |`_setTokenURI()` |`tokenURI()` | \"\" | \"\" | \"\" | \"\" | \"token.uri/123\" | \"token.uri/123\" | \"token.uri/\" | \"123\" | \"token.uri/123\" | \"token.uri/\" | \"\" | \"token.uri/<tokenId>\" |===     * Requirements:     * - `tokenId` must exist."
      },
      "totalSupply()": {
        "details": "Gets the total amount of tokens stored by the contract.",
        "returns": {
          "_0": "uint256 representing the total amount of tokens"
        }
      },
      "transferFrom(address,address,uint256)": {
        "details": "Transfers the ownership of a given token ID to another address. Usage of this method is discouraged, use {safeTransferFrom} whenever possible. Requires the msg.sender to be the owner, approved, or operator.",
        "params": {
          "from": "current owner of the token",
          "to": "address to receive the ownership of the given token ID",
          "tokenId": "uint256 ID of the token to be transferred"
        }
      }
    }
  },
  "userdoc": {
    "methods": {}
  }
}